:060000000A128A110C280F
:10000800FE00030EF2000A08F3000A128A111528EE
:100018000A128A110F28F601F70183010A128A11C0
:10002800FB28831203130C1F1A281B287C281F0C7B
:10003800F000700C0F39003A031D232824284928A2
:100048001E08F0000310700C1E3E95001E080139B2
:10005800F000F00EF00D17087006DF3970069700F3
:10006800831603131E08F00007300310F00CFF3E40
:10007800031D39287008F100F10E831203131708C5
:100088007106EF39710697007B281F0CF000700C81
:100098000F39013A031D5128522877281E08F0000D
:1000A8000310700C2D3E9B001E080139F000F00E65
:1000B800F00D1D087006DF3970069D0083160313C6
:1000C8001E08F00007300310F00CFF3E031D6728E0
:1000D8007008F100F10E831203131D087106EF3941
:1000E80071069D007B281E08F0007008F6000C13AE
:1000F8000B1D7F28802891280B110130F000700813
:10010800F707FA3081007608770203188C288D28C3
:100118008F280814902808100B1173088A00720E93
:100128008300FE0E7E0E0900073083160317880031
:100138008901073083160313850083120313850191
:10014800831603138801831203138801831603138C
:100158000F088F3960388F000F1481120112811136
:10016800011181140110FA308312031381008B16D8
:100178000B111F083F3940389F00C3309F05831675
:1001880003139F131F129F12071587149B309200A9
:100198003F308312031397051708F0390C3897007E
:1001A8001D08F0390C389D000F309500CF309705A9
:1001B8000F309B001D128C100330920412158C1CFA
:1001C800E628E728E3288C10831603130711871005
:1001D8000C17831203130C130B178B171030F40032
:1001E800F40BF4280000831203131F1408000A12EA
:1001F8008A1198200A128A11831203139F1805295D
:10020800062900291F0CF500750C0F39003A031D4B
:100218000E290F2914291F08C33904389F002429DF
:100228001F0CF500750C0F39013A031D1C291D29F7
:1002380022291F08C33908389F002429C3309F0585
:10024800C730F5002729F50B26292A292B298312DF
:0C02580003139F1400290A128A110C28BD
:08400000FF3FFF3FFF3FFF3FC0
:04400E00D420FF3F7C
:00000001FF
